{
  "contractName": "CustomerContract",
  "abi": [
    {
      "inputs": [
        {
          "internalType": "string",
          "name": "_id",
          "type": "string"
        },
        {
          "internalType": "string",
          "name": "_name",
          "type": "string"
        },
        {
          "internalType": "string",
          "name": "_addressInfo",
          "type": "string"
        },
        {
          "internalType": "string",
          "name": "_phone",
          "type": "string"
        },
        {
          "internalType": "string",
          "name": "_email",
          "type": "string"
        }
      ],
      "name": "addCustomer",
      "outputs": [],
      "stateMutability": "nonpayable",
      "type": "function"
    },
    {
      "inputs": [
        {
          "internalType": "string",
          "name": "_id",
          "type": "string"
        }
      ],
      "name": "getCustomer",
      "outputs": [
        {
          "components": [
            {
              "internalType": "string",
              "name": "id",
              "type": "string"
            },
            {
              "internalType": "string",
              "name": "name",
              "type": "string"
            },
            {
              "internalType": "string",
              "name": "addressInfo",
              "type": "string"
            },
            {
              "internalType": "string",
              "name": "phone",
              "type": "string"
            },
            {
              "internalType": "string",
              "name": "email",
              "type": "string"
            }
          ],
          "internalType": "struct CustomerContract.Customer",
          "name": "",
          "type": "tuple"
        }
      ],
      "stateMutability": "view",
      "type": "function"
    },
    {
      "inputs": [
        {
          "internalType": "string",
          "name": "_id",
          "type": "string"
        },
        {
          "internalType": "string",
          "name": "_name",
          "type": "string"
        },
        {
          "internalType": "string",
          "name": "_addressInfo",
          "type": "string"
        },
        {
          "internalType": "string",
          "name": "_phone",
          "type": "string"
        },
        {
          "internalType": "string",
          "name": "_email",
          "type": "string"
        }
      ],
      "name": "updateCustomer",
      "outputs": [],
      "stateMutability": "nonpayable",
      "type": "function"
    },
    {
      "inputs": [
        {
          "internalType": "string",
          "name": "_id",
          "type": "string"
        }
      ],
      "name": "isCustomerExists",
      "outputs": [
        {
          "internalType": "bool",
          "name": "",
          "type": "bool"
        }
      ],
      "stateMutability": "view",
      "type": "function"
    },
    {
      "inputs": [],
      "name": "getAllCustomerIds",
      "outputs": [
        {
          "internalType": "string[]",
          "name": "",
          "type": "string[]"
        }
      ],
      "stateMutability": "view",
      "type": "function"
    }
  ],
  "bytecode": "0x608060405234801561000f575f80fd5b506111418061001d5f395ff3fe608060405234801561000f575f80fd5b5060043610610055575f3560e01c80632c12b8c91461005957806347756d0314610089578063518bddd9146100a5578063ddaa91e1146100d5578063f1923a8a146100f3575b5f80fd5b610073600480360381019061006e9190610988565b61010f565b60405161008091906109e9565b60405180910390f35b6100a3600480360381019061009e9190610a02565b610145565b005b6100bf60048036038101906100ba9190610988565b61026c565b6040516100cc9190610c0e565b60405180910390f35b6100dd6105df565b6040516100ea9190610ce9565b60405180910390f35b61010d60048036038101906101089190610a02565b6106b3565b005b5f805f836040516101209190610d43565b90815260200160405180910390205f01805461013b90610d86565b9050119050919050565b5f80866040516101559190610d43565b90815260200160405180910390205f01805461017090610d86565b9050116101b2576040517f08c379a00000000000000000000000000000000000000000000000000000000081526004016101a990610e10565b60405180910390fd5b6040518060a00160405280868152602001858152602001848152602001838152602001828152505f866040516101e89190610d43565b90815260200160405180910390205f820151815f0190816102099190610fd4565b50602082015181600101908161021f9190610fd4565b5060408201518160020190816102359190610fd4565b50606082015181600301908161024b9190610fd4565b5060808201518160040190816102619190610fd4565b509050505050505050565b61027461080c565b5f80836040516102849190610d43565b90815260200160405180910390205f01805461029f90610d86565b9050116102e1576040517f08c379a00000000000000000000000000000000000000000000000000000000081526004016102d890610e10565b60405180910390fd5b5f826040516102f09190610d43565b90815260200160405180910390206040518060a00160405290815f8201805461031890610d86565b80601f016020809104026020016040519081016040528092919081815260200182805461034490610d86565b801561038f5780601f106103665761010080835404028352916020019161038f565b820191905f5260205f20905b81548152906001019060200180831161037257829003601f168201915b505050505081526020016001820180546103a890610d86565b80601f01602080910402602001604051908101604052809291908181526020018280546103d490610d86565b801561041f5780601f106103f65761010080835404028352916020019161041f565b820191905f5260205f20905b81548152906001019060200180831161040257829003601f168201915b5050505050815260200160028201805461043890610d86565b80601f016020809104026020016040519081016040528092919081815260200182805461046490610d86565b80156104af5780601f10610486576101008083540402835291602001916104af565b820191905f5260205f20905b81548152906001019060200180831161049257829003601f168201915b505050505081526020016003820180546104c890610d86565b80601f01602080910402602001604051908101604052809291908181526020018280546104f490610d86565b801561053f5780601f106105165761010080835404028352916020019161053f565b820191905f5260205f20905b81548152906001019060200180831161052257829003601f168201915b5050505050815260200160048201805461055890610d86565b80601f016020809104026020016040519081016040528092919081815260200182805461058490610d86565b80156105cf5780601f106105a6576101008083540402835291602001916105cf565b820191905f5260205f20905b8154815290600101906020018083116105b257829003601f168201915b5050505050815250509050919050565b60606001805480602002602001604051908101604052809291908181526020015f905b828210156106aa578382905f5260205f2001805461061f90610d86565b80601f016020809104026020016040519081016040528092919081815260200182805461064b90610d86565b80156106965780601f1061066d57610100808354040283529160200191610696565b820191905f5260205f20905b81548152906001019060200180831161067957829003601f168201915b505050505081526020019060010190610602565b50505050905090565b5f80866040516106c39190610d43565b90815260200160405180910390205f0180546106de90610d86565b905014610720576040517f08c379a0000000000000000000000000000000000000000000000000000000008152600401610717906110ed565b60405180910390fd5b6040518060a00160405280868152602001858152602001848152602001838152602001828152505f866040516107569190610d43565b90815260200160405180910390205f820151815f0190816107779190610fd4565b50602082015181600101908161078d9190610fd4565b5060408201518160020190816107a39190610fd4565b5060608201518160030190816107b99190610fd4565b5060808201518160040190816107cf9190610fd4565b50905050600185908060018154018082558091505060019003905f5260205f20015f9091909190915090816108049190610fd4565b505050505050565b6040518060a0016040528060608152602001606081526020016060815260200160608152602001606081525090565b5f604051905090565b5f80fd5b5f80fd5b5f80fd5b5f80fd5b5f601f19601f8301169050919050565b7f4e487b71000000000000000000000000000000000000000000000000000000005f52604160045260245ffd5b61089a82610854565b810181811067ffffffffffffffff821117156108b9576108b8610864565b5b80604052505050565b5f6108cb61083b565b90506108d78282610891565b919050565b5f67ffffffffffffffff8211156108f6576108f5610864565b5b6108ff82610854565b9050602081019050919050565b828183375f83830152505050565b5f61092c610927846108dc565b6108c2565b90508281526020810184848401111561094857610947610850565b5b61095384828561090c565b509392505050565b5f82601f83011261096f5761096e61084c565b5b813561097f84826020860161091a565b91505092915050565b5f6020828403121561099d5761099c610844565b5b5f82013567ffffffffffffffff8111156109ba576109b9610848565b5b6109c68482850161095b565b91505092915050565b5f8115159050919050565b6109e3816109cf565b82525050565b5f6020820190506109fc5f8301846109da565b92915050565b5f805f805f60a08688031215610a1b57610a1a610844565b5b5f86013567ffffffffffffffff811115610a3857610a37610848565b5b610a448882890161095b565b955050602086013567ffffffffffffffff811115610a6557610a64610848565b5b610a718882890161095b565b945050604086013567ffffffffffffffff811115610a9257610a91610848565b5b610a9e8882890161095b565b935050606086013567ffffffffffffffff811115610abf57610abe610848565b5b610acb8882890161095b565b925050608086013567ffffffffffffffff811115610aec57610aeb610848565b5b610af88882890161095b565b9150509295509295909350565b5f81519050919050565b5f82825260208201905092915050565b5f5b83811015610b3c578082015181840152602081019050610b21565b5f8484015250505050565b5f610b5182610b05565b610b5b8185610b0f565b9350610b6b818560208601610b1f565b610b7481610854565b840191505092915050565b5f60a083015f8301518482035f860152610b998282610b47565b91505060208301518482036020860152610bb38282610b47565b91505060408301518482036040860152610bcd8282610b47565b91505060608301518482036060860152610be78282610b47565b91505060808301518482036080860152610c018282610b47565b9150508091505092915050565b5f6020820190508181035f830152610c268184610b7f565b905092915050565b5f81519050919050565b5f82825260208201905092915050565b5f819050602082019050919050565b5f610c628383610b47565b905092915050565b5f602082019050919050565b5f610c8082610c2e565b610c8a8185610c38565b935083602082028501610c9c85610c48565b805f5b85811015610cd75784840389528151610cb88582610c57565b9450610cc383610c6a565b925060208a01995050600181019050610c9f565b50829750879550505050505092915050565b5f6020820190508181035f830152610d018184610c76565b905092915050565b5f81905092915050565b5f610d1d82610b05565b610d278185610d09565b9350610d37818560208601610b1f565b80840191505092915050565b5f610d4e8284610d13565b915081905092915050565b7f4e487b71000000000000000000000000000000000000000000000000000000005f52602260045260245ffd5b5f6002820490506001821680610d9d57607f821691505b602082108103610db057610daf610d59565b5b50919050565b5f82825260208201905092915050565b7f437573746f6d6572206e6f7420666f756e6400000000000000000000000000005f82015250565b5f610dfa601283610db6565b9150610e0582610dc6565b602082019050919050565b5f6020820190508181035f830152610e2781610dee565b9050919050565b5f819050815f5260205f209050919050565b5f6020601f8301049050919050565b5f82821b905092915050565b5f60088302610e8a7fffffffffffffffffffffffffffffffffffffffffffffffffffffffffffffffff82610e4f565b610e948683610e4f565b95508019841693508086168417925050509392505050565b5f819050919050565b5f819050919050565b5f610ed8610ed3610ece84610eac565b610eb5565b610eac565b9050919050565b5f819050919050565b610ef183610ebe565b610f05610efd82610edf565b848454610e5b565b825550505050565b5f90565b610f19610f0d565b610f24818484610ee8565b505050565b5b81811015610f4757610f3c5f82610f11565b600181019050610f2a565b5050565b601f821115610f8c57610f5d81610e2e565b610f6684610e40565b81016020851015610f75578190505b610f89610f8185610e40565b830182610f29565b50505b505050565b5f82821c905092915050565b5f610fac5f1984600802610f91565b1980831691505092915050565b5f610fc48383610f9d565b9150826002028217905092915050565b610fdd82610b05565b67ffffffffffffffff811115610ff657610ff5610864565b5b6110008254610d86565b61100b828285610f4b565b5f60209050601f83116001811461103c575f841561102a578287015190505b6110348582610fb9565b86555061109b565b601f19841661104a86610e2e565b5f5b828110156110715784890151825560018201915060208501945060208101905061104c565b8683101561108e578489015161108a601f891682610f9d565b8355505b6001600288020188555050505b505050505050565b7f437573746f6d657220494420616c7265616479206578697374730000000000005f82015250565b5f6110d7601a83610db6565b91506110e2826110a3565b602082019050919050565b5f6020820190508181035f830152611104816110cb565b905091905056fea2646970667358221220191cdd2e23dd67f27bfa1d505e54c2e369cb7a3b76d5a5ac82767c453b64a04564736f6c63430008150033",
  "immutableReferences": {},
  "source": "// SPDX-License-Identifier: MIT\r\npragma solidity ^0.8.21;\r\n\r\ncontract CustomerContract {\r\n    struct Customer {\r\n        string id;\r\n        string name;\r\n        string addressInfo; // \"address\" est un mot-cl rserv\r\n        string phone;\r\n        string email;\r\n    }\r\n\r\n    mapping(string => Customer) private customers; // Stocker les clients par ID\r\n    string[] private customerIds; // Liste des IDs pour faciliter l'itration\r\n\r\n    // Ajouter un nouveau client\r\n    function addCustomer(\r\n        string memory _id,\r\n        string memory _name,\r\n        string memory _addressInfo,\r\n        string memory _phone,\r\n        string memory _email\r\n    ) public {\r\n        require(bytes(customers[_id].id).length == 0, \"Customer ID already exists\");\r\n        customers[_id] = Customer(_id, _name, _addressInfo, _phone, _email);\r\n        customerIds.push(_id);\r\n    }\r\n\r\n    // Rcuprer les informations d'un client par ID\r\n    function getCustomer(string memory _id) public view returns (Customer memory) {\r\n        require(bytes(customers[_id].id).length > 0, \"Customer not found\");\r\n        return customers[_id];\r\n    }\r\n\r\n    // Mettre  jour un client existant\r\n    function updateCustomer(\r\n        string memory _id,\r\n        string memory _name,\r\n        string memory _addressInfo,\r\n        string memory _phone,\r\n        string memory _email\r\n    ) public {\r\n        require(bytes(customers[_id].id).length > 0, \"Customer not found\");\r\n        customers[_id] = Customer(_id, _name, _addressInfo, _phone, _email);\r\n    }\r\n\r\n    // Vrifier si un client existe\r\n    function isCustomerExists(string memory _id) public view returns (bool) {\r\n        return bytes(customers[_id].id).length > 0;\r\n    }\r\n\r\n    // Obtenir tous les IDs des clients\r\n    function getAllCustomerIds() public view returns (string[] memory) {\r\n        return customerIds;\r\n    }\r\n}\r\n",
  "sourcePath": "C:\\Users\\hp\\my-solidity-project\\contracts\\DeliveryTracking.sol",
  "compiler": {
    "name": "solc",
    "version": "0.8.21+commit.d9974bed.Emscripten.clang"
  },
  "schemaVersion": "3.4.16",
  "updatedAt": "2024-12-29T19:14:12.013Z",
  "devdoc": {
    "kind": "dev",
    "methods": {},
    "version": 1
  },
  "userdoc": {
    "kind": "user",
    "methods": {},
    "version": 1
  }
}